:1000000001123132334134353642373839432A30E0
:0F00100023447580FF900002780079007530005E
:0F001F0075F00A7580F030840B30850C30860D3B
:0F002E0030870E80EF7800800C78018008780210
:10003D008004780380007580F0C280308019D280F2
:10004D00C281308116D281C282308213D282C283A4
:0F005D00308310D28380BE7900800C7901800837
:10006C007902800479038000E825E025E02993FAE1
:0F007C00B4300280039430FBE53075F00AA42BFA
:0E008B00F5307580F03084FD3085FA3086F750
:050099003087F48084B3
:00000001FF
